:100000000C9462000C948A000C948A000C948A0070
:100010000C948A000C948A000C948A000C94DC03E3
:100020000C948A000C948A000C948A000C9420038F
:100030000C948A000C948A000C948A000C948A0018
:100040000C94D6020C948A000C94A4020C947E02A8
:100050000C948A000C948A000C948A000C948A00F8
:100060000C948A000C948A00000000080002010031
:100070000003040700000000000000000000000072
:10008000240027002A000000000023002600290089
:1000900000000000250028002B00040404040404D0
:1000A0000404020202020202030303030303010227
:1000B00004081020408001020408102001020408F6
:1000C00010202B0411241FBECFEFD8E0DEBFCDBF20
:1000D00011E0A0E0B1E0ECEEF0E102C005900D927D
:1000E000AA31B107D9F722E0AAE1B1E001C01D921F
:1000F000A130B207E1F710E0C2E6D0E004C02197DA
:10010000FE010E946E08C136D107C9F70E94C404DF
:100110000C9474080C940000E091EA01EC3088F52E
:100120004091EB0128E830E0241B310947FD33956D
:10013000220F331F220F331F8217930784F0409141
:10014000EC0128E532E0241B310947FD3395220FED
:10015000331F220F331F821793070CF49C01225088
:100160003109220F331F4FB7F8948E2F90E0FC0116
:10017000EE0FFF1FE80FF91FEB53FE4F3283218371
:100180004FBF0895AF92BF92CF92DF92EF92FF924E
:100190000F931F93CF93DF936C017B018B01040FAF
:1001A000151FEB015E01AE18BF08C017D10759F04B
:1001B0006991D601ED91FC910190F081E02DC6018D
:1001C0000995892B79F7C501DF91CF911F910F9187
:1001D000FF90EF90DF90CF90BF90AF900895FC011B
:1001E000538D448D252F30E0842F90E0821B930B9C
:1001F000541710F0CF96089501970895FC01918D42
:10020000828D981761F0A28DAE0FBF2FB11D5D9644
:100210008C91928D9F5F9F73928F90E008958FEFE6
:100220009FEF0895FC01918D828D981731F0828D9A
:10023000E80FF11D858D90E008958FEF9FEF0895F1
:10024000FC01918D228D892F90E0805C9F4F821B55
:1002500091098F739927089588E291E00E94200107
:1002600021E0892B09F420E0822F089580E090E0BE
:10027000892B29F00E942C0181110C940000089513
:10028000FC01A48DA80FB92FB11DA35ABF4F2C910B
:10029000848D90E001968F739927848FA689B78902
:1002A0002C93A089B1898C91837080648C93938DF9
:1002B000848D981306C00288F389E02D80818F7D9C
:1002C00080830895EF92FF920F931F93CF93DF9354
:1002D000EC0181E0888F9B8D8C8D98131AC0E88982
:1002E000F989808185FF15C09FB7F894EE89FF8951
:1002F0006083E889F98980818370806480839FBFEF
:1003000081E090E0DF91CF911F910F91FF90EF90EE
:100310000895F62E0B8D10E00F5F1F4F0F731127FE
:10032000E02E8C8D8E110CC00FB607FCFACFE88939
:10033000F989808185FFF5CFCE010E944001F1CF80
:10034000EB8DEC0FFD2FF11DE35AFF4FF0829FB7AD
:10035000F8940B8FEA89FB8980818062CFCFCF939D
:10036000DF93EC01888D8823B9F0AA89BB89E889DD
:10037000F9898C9185FD03C0808186FD0DC00FB683
:1003800007FCF7CF8C9185FFF2CF808185FFEDCF01
:10039000CE010E944001E9CFDF91CF91089590E016
:1003A000FC01E859FF4F2491FC01E255FF4F3491C5
:1003B000FC01E656FF4FE491EE23C9F0222339F009
:1003C000233001F1A8F4213019F1223029F1F0E0B5
:1003D000EE0FFF1FE057FF4FA591B4918FB7F89430
:1003E000EC91611126C030953E233C938FBF089558
:1003F0002730A9F02830C9F0243049F780918000D7
:100400008F7D03C0809180008F7780938000DFCF45
:1004100084B58F7784BDDBCF84B58F7DFBCF809192
:10042000B0008F778093B000D2CF8091B0008F7DE5
:10043000F9CF3E2BDACFCF93DF9390E0FC01E2556A
:10044000FF4F249186569F4FFC0184918823D1F061
:1004500090E0880F991FFC01E458FF4FA591B491DB
:10046000FC01E057FF4FC591D49161110EC09FB7B9
:10047000F8948C91E22FE0958E238C932881E223CF
:10048000E8839FBFDF91CF9108958FB7F894EC91E7
:10049000E22BEC938FBFF6CF3FB7F8948091240105
:1004A00090912501A0912601B091270126B5A89B26
:1004B00005C02F3F19F00196A11DB11D3FBFBA2FF6
:1004C000A92F982F8827BC01CD01620F711D811DB6
:1004D000911D42E0660F771F881F991F4A95D1F73B
:1004E0000895FC0101900020E9F73197AF01481B06
:1004F000590BBC0188E291E00C94C2001F920F924C
:100500000FB60F9211242F933F934F935F936F93E6
:100510007F938F939F93AF93BF93EF93FF9388E263
:1005200091E00E944001FF91EF91BF91AF919F91A7
:100530008F917F916F915F914F913F912F910F908C
:100540000FBE0F901F9018951F920F920FB60F922B
:1005500011242F938F939F93EF93FF93E091380192
:10056000F09139018081E0913E01F0913F0182FDDF
:100570001BC09081809141018F5F8F732091420158
:10058000821741F0E0914101F0E0E85DFE4F958F68
:1005900080934101FF91EF919F918F912F910F9047
:1005A0000FBE0F901F9018958081F4CF1F920F926D
:1005B0000FB60F9211242F933F938F939F93AF9376
:1005C000BF938091200190912101A0912201B091CF
:1005D000230130911F0123E0230F2D3758F5019699
:1005E000A11DB11D20931F01809320019093210133
:1005F000A0932201B09323018091240190912501C1
:10060000A0912601B09127010196A11DB11D8093F3
:10061000240190932501A0932601B0932701BF9157
:10062000AF919F918F913F912F910F900FBE0F909F
:100630001F90189526E8230F0296A11DB11DD2CF59
:100640001F920F920FB60F9211242F933F934F9347
:100650005F936F937F938F939F93AF93BF93CF934A
:10066000DF93EF93FF9380911E01C091E901D0E0E9
:1006700087FF24C0109285001092840080911E0193
:100680008F5F80931E0180911E01082E000C990B34
:100690008C179D0724F480911E018C30C4F1809149
:1006A000840090918500049680349C4908F47AC0B7
:1006B0008091840090918500049676C080911E01FF
:1006C000082E000C990B8C179D07C4F6E0911E01B3
:1006D0008E2FEE0F990BFC01EE0FFF1FE80FF91F95
:1006E000EB53FE4F808186FFC9CFE0911E018E2F14
:1006F000EE0F990BFC01EE0FFF1FE80FF91FEB53F4
:10070000FE4F808160E08F730E94CF01B7CF2091B0
:10071000840030918500E0911E018E2FEE0F990B21
:10072000FC01EE0FFF1FE80FF91FEB53FE4F818115
:100730009281820F931F9093890080938800E091AB
:100740001E018E2FEE0F990BFC01EE0FFF1FE80F1D
:10075000F91FEB53FE4F808186FF11C0E0911E010F
:100760008E2FEE0F990BFC01EE0FFF1FE80FF91F04
:10077000EB53FE4F808161E08F730E94CF01FF91A8
:10078000EF91DF91CF91BF91AF919F918F917F9129
:100790006F915F914F913F912F910F900FBE0F90EE
:1007A0001F90189580E49CE99093890080938800BD
:1007B0008FEF80931E01E3CF1F920F920FB60F921F
:1007C00011240F900FBE0F901F901895CF92DF92BB
:1007D000EF92FF920F931F93E82FF92F05C001505E
:1007E00011092109310961F1908196239417B9F318
:1007F00005C0015011092109310911F19081962399
:100800009413F7CFC12CD12CE12CF12C0AC08FEF1F
:10081000C81AD80AE80AF80A0C151D052E053F0566
:1008200079F080818623841791F36C2D7D2D8E2D98
:100830009F2D1F910F91FF90EF90DF90CF90089523
:1008400060E070E080E090E01F910F91FF90EF90EA
:10085000DF90CF90089510922B0110922A0188EE1C
:1008600093E0A0E0B0E080932C0190932D01A09341
:100870002E01B0932F0184E091E0909329018093A1
:10088000280185EC90E0909335018093340184EC4D
:1008900090E0909337018093360180EC90E0909344
:1008A00039018093380181EC90E090933B01809373
:1008B0003A0182EC90E090933D0180933C0186ECFC
:1008C00090E090933F0180933E011092410110927D
:1008D00042011092430110924401EAEBF0E0E491EE
:1008E000E093F301EBEBF0E0E491E093F40186EAAE
:1008F00090E0FC012491E22FF0E0EE0FFF1FE057A3
:10090000FF4F259134913093F6012093F501E7EAEA
:10091000F0E0E491F0E0EE0FFF1FEA57FF4F259162
:1009200034913093FA012093F901FC018491E82F6E
:10093000F0E0EE0FFF1FE458FF4F859194919093E4
:10094000F8018093F7018EE39BE09093FC01809384
:10095000FB018091E9018C3098F491E0980F90931D
:10096000E9018093EA0190E0FC01EE0FFF1FE80F20
:10097000F91FEB53FE4F88EB9BE092838183089530
:100980008FEF8093EA010895CF93DF93CDB7DEB761
:10099000A1970FB6F894DEBF0FBECDBF789484B593
:1009A000826084BD84B5816084BD85B5826085BD6B
:1009B00085B5816085BD80916E00816080936E00F9
:1009C00010928100809181008260809381008091EB
:1009D000810081608093810080918000816080939C
:1009E00080008091B10084608093B1008091B0005C
:1009F00081608093B00080917A00846080937A0057
:100A000080917A00826080937A0080917A00816080
:100A100080937A0080917A00806880937A001092A7
:100A2000C100E0913801F091390182E08083E091CA
:100A30003401F09135011082E0913601F0913701D7
:100A400080E1808310924001E0913C01F0913D01F2
:100A500086E08083E0913A01F0913B0180818061E2
:100A60008083E0913A01F0913B018081886080832E
:100A7000E0913A01F0913B01808180688083E091B0
:100A80003A01F0913B0180818F7D808361E08CE0B1
:100A90000E941B0260E08DE00E941B0261E083E087
:100AA0000E941B0261E082E00E941B028091EA0129
:100AB0008C3008F051C061E089E00E941B028091F7
:100AC000EA01282F30E0F901EE0FFF1FE20FF31FBC
:100AD000EB53FE4F9081907C996090831092EB01D4
:100AE0001092EC012CE0622F0E946208829FB001FC
:100AF000112430E020E0AB01420F531FFA01EE0F4A
:100B0000FF1FE40FF51FEB53FE4F908196FD16C0BB
:100B10002F5F3F4F2C30310571F781110FC01092BC
:100B2000800082E080938100109285001092840002
:100B3000B19A80916F00826080936F00E091EA012A
:100B40008E2F90E0FC01EE0FFF1FE80FF91FEB5313
:100B5000FE4F808180648083BAE04B2E512C612C43
:100B6000712C18E5212E12E0312E60E08CE00E94FD
:100B7000CF0183E090E00197F1F761E08CE00E9403
:100B8000CF0183E290E00197F1F760E08CE00E94F2
:100B9000CF01EBEBF0E06491E7EAF0E08491E82F1D
:100BA000F0E0EE0FFF1FEA57FF4F8591949100E4AC
:100BB00012E42FE030E0462F0E94E6036115710534
:100BC0008105910529F06F5F7F4F8F4F9F4F9F7079
:100BD0009B0177FF02C02F5F3F4FB9017595679565
:100BE000072E000C880B990B0E94D6072DEC3CECCD
:100BF00048EE51E40E942C070E949E076B014B01B6
:100C0000770FAA08BB08B7FE7AC06DE288E291E0D0
:100C10000E94620122273327A901281939094A09AC
:100C20005B0919A2CE0181967C01CA01B901A30119
:100C300092010E94FB06605DF70162937F0121151E
:100C400031054105510589F7E114F10419F0C70197
:100C50000E94710282E191E00E94710286E191E0BE
:100C60000E94710260E0F6E0CF16D1040CF05DC086
:100C700082E00E94CF0161E083E00E94CF01809179
:100C8000EC019101281B310987FD3395C901880FBB
:100C9000991F880F991F0E948C000E944C024B01E3
:100CA0005C0182ECC82EDD24D394E12CF12C0E944F
:100CB0004C02681979098A099B09683E73408105CD
:100CC0009105A8F331E0C31AD108E108F10888EED4
:100CD000880E83E0981EA11CB11CC114D104E1044C
:100CE000F10429F720E030E0232B09F43ECF0E94E5
:100CF0002C01882309F439CF0E94000036CFA501CA
:100D0000940119A2CE0181967C01CA01B901A30107
:100D100092010E94FB06605DF70162937F0121153D
:100D200031054105510589F78FCF83E00E94CF013E
:100D300061E082E00E94CF018091EB0198E8C92E2A
:100D4000D12CC81AD10887FDD394CC0CDD1CCC0C57
:100D5000DD1C0D2C000CEE08FF088091EC019101C8
:100D6000281B310987FD3395220F331F220F331FB4
:100D7000032E000C440B550B2C193D094E095F093D
:100D8000AAE5B0E00E94F00624EB30E040E050E03D
:100D90000E94D106DA01C9018C0D9D1DAE1DBF1D3B
:100DA0007ACF052E97FB1EF400940E94E80657FDAB
:100DB00007D00E94FB0607FC03D04EF40C94E80613
:100DC00050954095309521953F4F4F4F5F4F089577
:100DD00090958095709561957F4F8F4F9F4F0895A7
:100DE0000E941D07A59F900DB49F900DA49F800D9C
:100DF000911D11240895A1E21A2EAA1BBB1BFD010F
:100E00000DC0AA1FBB1FEE1FFF1FA217B307E407E9
:100E1000F50720F0A21BB30BE40BF50B661F771F41
:100E2000881F991F1A9469F7609570958095909521
:100E30009B01AC01BD01CF010895A29FB001B39FFA
:100E4000C001A39F700D811D1124911DB29F700DD3
:100E5000811D1124911D08950E9440070C942808BB
:100E60000E94210858F00E941A0840F029F45F3FC0
:100E700029F00C94110851110C945C080C9417087B
:100E80000E94390868F39923B1F3552391F3951B18
:100E9000550BBB27AA2762177307840738F09F5F9B
:100EA0005F4F220F331F441FAA1FA9F335D00E2E08
:100EB0003AF0E0E832D091505040E695001CCAF775
:100EC0002BD0FE2F29D0660F771F881FBB1F261738
:100ED00037074807AB07B0E809F0BB0B802DBF010F
:100EE000FF2793585F4F3AF09E3F510578F00C94DE
:100EF00011080C945C085F3FE4F3983ED4F38695A8
:100F000077956795B795F7959F5FC9F7880F911DFE
:100F10009695879597F90895E1E0660F771F881FEA
:100F2000BB1F621773078407BA0720F0621B730B9D
:100F3000840BBA0BEE1F88F7E09508950E94A50771
:100F40006894B1110C945C0808950E94410888F0DF
:100F50009F5798F0B92F9927B751B0F0E1F0660F7D
:100F6000771F881F991F1AF0BA95C9F714C0B130BE
:100F700091F00E945B08B1E008950C945B08672F24
:100F8000782F8827B85F39F0B93FCCF386957795ED
:100F90006795B395D9F73EF49095809570956195D6
:100FA0007F4F8F4F9F4F0895E89409C097FB3EF401
:100FB00090958095709561957F4F8F4F9F4F9923A6
:100FC000A9F0F92F96E9BB279395F6958795779524
:100FD0006795B795F111F8CFFAF4BB0F11F460FFE4
:100FE0001BC06F5F7F4F8F4F9F4F16C0882311F03C
:100FF00096E911C0772321F09EE8872F762F05C050
:10100000662371F096E8862F70E060E02AF09A95EA
:10101000660F771F881FDAF7880F9695879597F9DF
:10102000089597F99F6780E870E060E008959FEF6A
:1010300080EC089500240A9416161706180609066F
:10104000089500240A94121613061406050608953E
:10105000092E0394000C11F4882352F0BB0F40F4C6
:10106000BF2B11F460FF04C06F5F7F4F8F4F9F4F06
:10107000089557FD9058440F551F59F05F3F71F088
:101080004795880F97FB991F61F09F3F79F08795EF
:101090000895121613061406551FF2CF4695F1DF78
:1010A00008C0161617061806991FF1CF8695710508
:1010B000610508940895E894BB2766277727CB013C
:1010C00097F90895991B79E004C0991F961708F0C5
:1010D000961B881F7A95C9F780950895EE0FFF1F1C
:0C10E0000590F491E02D0994F894FFCFE6
:1010EC00000000006201C200EF00AF012001FE0011
:0A10FC00120120636D000D0A0000D0
:00000001FF
